:1000000000800020BD010000BD3E0000813E0000D8
:10001000813E0000813E0000813E0000813E0000E4
:10002000813E0000813E0000813E0000BD3E000098
:10003000BD3E0000813E0000BD3E0000713E00005C
:10004000BD3E0000BD3E0000BD3E0000BD3E0000C4
:10005000BD3E0000BD3E0000BD3E0000BD3E0000B4
:10006000BD3E0000BD3E0000BD3E0000BD3E0000A4
:10007000BD3E0000BD3E0000BD3E0000BD3E000094
:10008000BD3E0000BD3E0000BD3E0000BD3E000084
:10009000BD3E0000BD3E0000BD3E0000BD3E000074
:1000A000852F0000952F0000BD3E0000BD3E0000E2
:1000B000BD3E0000BD3E0000BD3E0000BD3E000054
:1000C000BD3E0000BD3E0000BD3E0000BD3E000044
:1000D000BD3E0000BD3E0000BD3E0000BD3E000034
:1000E000BD3E0000BD3E0000BD3E0000BD3E000024
:1000F000BD3E0000D55F0000BD3E0000ED66000083
:10010000BD3E0000696C0000BD3E0000BD3E000029
:10011000BD3E0000BD3E0000BD3E0000BD3E0000F3
:10012000BD3E0000BD3E0000BD3E0000BD3E0000E3
:10013000BD3E0000BD3E0000BD3E0000BD3E0000D3
:10014000BD3E0000BD3E0000BD3E0000BD3E0000C3
:1001500095520000AD520000C5520000DD52000073
:10016000BD3E0000DD460000BD3E0000BD3E00007B
:10017000BD3E0000BD3E0000BD3E0000BD3E000093
:10018000BD3E0000BD3E0000BD3E0000BD3E000083
:10019000BD3E0000BD3E0000BD3E0000BD3E000073
:1001A000BD3E0000BD3E0000BD3E0000BD3E000063
:1001B000BD3E0000BD3E0000BD3E0000574B4CF26E
:1001C000205210B51A804DF628121A8000BF00BFC9
:1001D00003F078FE524B4FF010621A60514A9A6059
:1001E000514ADA60A3F53043203B1A6812F480725A
:1001F00004D14E490A604FF4A8521A604C4B1A7849
:10020000110703D51A7842F008021A70494B4A4C7C
:100210004A482A221A704A4A00239918A14203D256
:10022000195899500433F8E7464B474900228B424E
:1002300002D243F8042BFAE74448454900235A58B0
:100240001A500433B3F5DE7FF9D1424B424A802184
:1002500003F8011B9342FBD1404B3C4A1A60404BD0
:100260000A221A70A3F5805324225A70A0221A7011
:100270009A799207FCD59A79D406FCD4394A9379B5
:1002800003F00C03082B374BF9D105221A714322D6
:100290005A719A799006FCD5324A9179314B4906C8
:1002A000FBD5314A4FF08171116005215160202248
:1002B0001A709A7902F00C020C2AFAD12B4B2C4AB4
:1002C0001A602C4B2C4A1A6000225A60072243F80D
:1002D000042C2A4AC3F80C2D62B604F0BFF8134B65
:1002E0001B68DA0705D5264803F0ECFF254B264AA4
:1002F0001A60264B1B785B0609D5224C224A2368DC
:10030000934204D11E4803F0DDFF0023236007F071
:100310008FFE03F0DDFD05F08FF9FEE70E200540AE
:1003200030800440823F04000100002B14D00340C1
:1003300002D0074000E00740B4A2FF1FC8AB000096
:100340006089FF1FB8A2FF1FFCBBFF1F0084FF1FB7
:100350000000000000E400E05FE400E008ED00E0E1
:1003600000500640004006404480044004800440A1
:10037000C010050014E000E03F190100000020203B
:100380006DC69F571CE00340A5C3945A00F0074078
:10039000FFFFFFFFFFFFFFFFFFFFFFFFFFFFFFFF6D
:1003A000FFFFFFFFFFFFFFFFFFFFFFFFFFFFFFFF5D
:1003B000FFFFFFFFFFFFFFFFFFFFFFFFFFFFFFFF4D
:1003C000FFFFFFFFFFFFFFFFFFFFFFFFFFFFFFFF3D
:1003D000FFFFFFFFFFFFFFFFFFFFFFFFFFFFFFFF2D
:1003E000FFFFFFFFFFFFFFFFFFFFFFFFFFFFFFFF1D
:1003F000FFFFFFFFFFFFFFFFFFFFFFFFFFFFFFFF0D
:10040000FFFFFFFFFFFFFFFFFFFFFFFFDEF9FFFF23
:1004100010B5054C237833B9044B13B10448AFF33E
:1004200000800123237010BDB8A2FF1F0000000050
:10043000C8AB000008B5064B1BB106480649AFF330
:1004400000800648036813B1054B03B1984708BD07
:1004500000000000C8AB0000BCA2FF1FB4A2FF1F39
:1004600000000000704700BF704700BF82B002ABC1
:1004700003E90300009B23F07F43044A934203D126
:10048000019B1A68024B1A6002B070476400430077
:10049000E4A3FF1F704700BF08B503681B68C9B21B
:1004A000984708BD08B503681B68C9B2984708BDDE
:1004B00008B503681B68C9B2984708BD08B503684A
:1004C0001B68C9B2984708BD0020704708B5044BA7
:1004D00003EB5103B3FBF1F103F016F908BD00BFC4
:1004E0000044950838B505460B461446054901EB0E
:1004F0005301B1FBF3F103F007F92846214603F05D
:100500005BFA38BD0044950808B503F085FA08BDCC
:1005100008B503F0BDFA08BD08B503F063FB08BDDC
:1005200008B503F089FB08BD08B503F06BFB08BDF7
:1005300008B503F0CFFA08BD08B503F095FB08BD78
:1005400008B503F0E5FA08BD08B503F03FFB01204C
:1005500008BD00BF08B503F0EDFA08BD38B5054683
:100560000C46084608F044FB02462846214603F0A4
:10057000E1FA38BD10B5044604F080FF204610BDF6
:10058000704700BF30B4002915DD044645184FF60A
:10059000FF7008214AF2010214F8013B58400B4653
:1005A00010F0010F14BF82EA50004008013BF7D160
:1005B000AC42F1D101E04FF6FF7030BC704700BF94
:1005C00010B582B004460023019303238DF8013057
:1005D00001238DF80530114B1B788DF800308DF814
:1005E000030003128DF8023068460621FFF7CAFFA8
:1005F0008DF8060000128DF80700094B1C60094CAD
:10060000204603F031FB204603F064FA2046694699
:10061000082203F08FFA02B010BD00BFF4A2FF1F42
:10062000F0A3FF1F20A3FF1F70B582B0064603F0A2
:10063000DBFE0546234C204603F0D4FA062804DCF2
:1006400003F0D2FE401B8642F5D81E4803F0CAFADA
:1006500007282DD10DF1FF340DF10606194D28465E
:1006600003F0D0FA04F8010FB442F8D1684605212E
:10067000FFF788FF9DF806209DF8053043EA022326
:10068000984215D19DF800200F4B1B789A420FD14C
:100690009DF80130032B0BD10C4B1A680C4B1A60E0
:1006A0009DF803209DF8043043EA0222094B1A60AA
:1006B000044C204603F0D8FA204603F00BFA002041
:1006C00002B070BD20A3FF1FF4A2FF1FF0A3FF1F05
:1006D00080A3FF1FFCA3FF1F70B506460D460A4C02
:1006E000204640F2E24103F00FF82046062103F0D5
:1006F00063F92046314603F0CBF9204603F0B4FA03
:10070000024B1D7070BD00BF20A3FF1FF4A2FF1F8E
:1007100070B5A6B0A74D2869697B002400940194A8
:1007200001260296062303930223049322462346BE
:1007300001F0D6FC2869697B01F044FD00F00CFC57
:100740009D4A9E4B1A609E4A9E4B1A609E4A9F4B42
:100750001A600D20314603F0F7FD9D4A9D4B1A604B
:100760009D4B1C60C8229D4B5A739D4B1B7833B127
:100770009A4B1B7B03F1604303F564431A7097485F
:100780009849994A04F062FE08200121FFF7A4FF6E
:100790004FF4FA6003F04CFE40F20710FFF710FF31
:1007A00042F21070FFF740FF904D06A829880A22F8
:1007B00004F002FF8E4C204606A904F069FE06A84C
:1007C00004F09CFE23685B6820468A49042298470F
:1007D000204604F083FE4FF48670FFF7F1FE42F2EC
:1007E0001070FFF721FF0AA829880A2204F0E4FE0E
:1007F00020460AA904F04CFE0AA804F07FFE2368F4
:100800005B6820467C4906229847204604F066FE35
:100810004FF48570FFF7D4FE42F21070FFF704FF2B
:10082000288807F0CBF94FF0745107F01BFA014606
:100830000EA8022204F0D4FE20460EA904F028FEE1
:100840000EA804F05BFE23685B6820466B49052216
:100850009847204604F042FE40F20910FFF7B0FE30
:1008600042F21070FFF7E0FE288807F0A7F94FF07A
:10087000745107F0F7F9014612A8022204F0B0FE05
:10088000204612A904F004FE12A804F037FE2368E3
:100890005B6820465A4906229847204604F01EFE0F
:1008A00040F20310FFF78CFE42F21070FFF7BCFE1F
:1008B00016A829880A2204F07FFE204616A904F013
:1008C000E7FD16A804F01AFE23685B6820464D4930
:1008D00002229847204604F001FE4FF48770FFF78C
:1008E0006FFE42F21070FFF79FFE288807F066F94E
:1008F0004FF0665107F0B6F901461AA8022204F03B
:100900006FFE20461AA904F0C3FD1AA804F0F6FDF4
:1009100023685B6820463C4911229847204604F032
:10092000DDFDD520FFF74CFE42F21070FFF77CFE94
:10093000288807F043F94FF0665107F093F9014614
:100940001EA8022204F04CFE20461EA904F0A0FDC1
:100950001EA804F0D3FD23685B6820462B490F22B4
:100960009847204604F0BAFDD620FFF729FE42F250
:100970001070FFF759FE288807F020F94FF06651F4
:1009800007F070F9014622A8022204F029FE204651
:1009900022A904F07DFD22A804F0B0FD23685B6865
:1009A00020461B490F229847204604F097FD26B0A9
:1009B00070BD00BFDCB7FF1F6D040000E0AFFF1F7C
:1009C00065040000ECAFFF1F69040000E8AFFF1FE3
:1009D00000007041E4A3FF1F30A3FF1F38A3FF1FD7
:1009E000C8B9FF1F810A0000734F1200FCA3FF1F4C
:1009F000DCB9FF1F40A7000048A7000050A7000077
:100A000058A7000060A7000064A7000078A70000B6
:100A100088A7000010B50F4800240470802343739A
:100A20000D490E4A07F0E4FA0D4B1C714FF47A722F
:100A30009A601C730B4A1A605C734FF0FF330A4ACA
:100A400013600A4A13600A4B0A4A13600A4A136089
:100A500010BD00BF38A3FF1F750500006089FF1F90
:100A600020A3FF1FF8A60000F8B7FF1FF0B7FF1F75
:100A7000950400000CB8FF1F08B8FF1FFFFFFFFF21
:100A800070B584B062B603F0AFFC064600F0FAFD24
:100A90000020B54B198800F08BFE304606F0C4FCF0
:100AA000AFA3D3E9002306F05FFE02460B46012008
:100AB00000F0D6FE0220AD4B197800F05BFE03205B
:100AC000AB4B196800F0A0FE0420AA4B196800F097
:100AD0009BFE0520A84B196800F096FE0620A74B48
:100AE000196800F091FE0720A54B196800F08CFEF4
:100AF0000820A44B196800F087FE0920A24B196852
:100B000000F082FE0A20A14B196800F07DFE0B2048
:100B10009F4B196800F078FE0C209E4B196800F07E
:100B200073FE0D209C4B196800F06EFE0E209B4B4F
:100B3000196800F069FE0F20994B196800F064FEF7
:100B40001020984B196800F05FFE1120964B196831
:100B500000F05AFE1220954B196800F055FE132044
:100B6000934B196800F050FE1420924B196800F066
:100B70004BFE1520904B196800F046FE16208F4B57
:100B8000196800F041FE17208D4B196800F03CFEFB
:100B900018208C4B196800F037FE19208A4B196811
:100BA00000F032FE1A20894B196800F02DFE1B2040
:100BB000874B196800F028FE1C20864B196800F04E
:100BC00023FE1D20844B196800F01EFE1E20834B5F
:100BD000196800F019FE1F20814B196800F014FEFF
:100BE0002020804B196800F00FFE21207E4B1968F1
:100BF00000F00AFE22207D4B196800F005FE23203C
:100C00007B4B196800F000FE24207A4B196800F035
:100C1000FBFD2520784B196800F0F6FD2620774B68
:100C2000196800F0F1FD2720754B196800F0ECFD04
:100C30002820744B196800F0E7FD2920724B1968D1
:100C400000F0E2FD2A20714B196800F0DDFD2B2039
:100C50006F4B196800F0D8FD2C206E4B196800F01E
:100C6000D3FD2D206C4B196800F0CEFD2E206B4B70
:100C7000196800F0C9FD2F20694B196800F0C4FD08
:100C80003020684B196800F0BFFD3120664B1968B1
:100C900000F0BAFD3220654B196800F0B5FD332035
:100CA000634B196800F0B0FD3420624B196800F006
:100CB000ABFD3520604B196800F0A6FD36205F4B78
:100CC000196800F0A1FD37205D4B196800F09CFD0C
:100CD00038205C4B196800F097FD39205A4B196891
:100CE00000F092FD3A20594B196800F08DFD3B2031
:100CF000574B197800F03EFD3C20564B197800F018
:100D000039FD6420544B197800F034FD00F0E0FC0C
:100D100003F06AFB801B514B186003F065FB504DDC
:100D20002860504C2069617BF423009300230193D9
:100D30003322C82301F0E2FD03F056FB2B68C01AF2
:100D4000286003F051FB484B18602069D0F81C2440
:100D5000D0F818349A4200F09980012586E000BF4F
:100D60000000000080842E41E4A2FF1F68A3FF1F43
:100D7000E0A3FF1FDCA2FF1F4CA3FF1F90A3FF1FD8
:100D8000D4A3FF1FD4A2FF1F34A3FF1F88A3FF1FFC
:100D9000E8A3FF1FB8A3FF1F84A3FF1F58A3FF1FD3
:100DA000FCA2FF1F0CA4FF1F78A3FF1FACA3FF1F13
:100DB000C4A3FF1F94A3FF1F04A4FF1FE0A2FF1FF3
:100DC000F8A3FF1FC8A3FF1F98A3FF1F6CA3FF1F5B
:100DD00000A4FF1F54A3FF1FB0A3FF1F18A3FF1FF2
:100DE00010A3FF1F9CA3FF1FDCA3FF1F00A3FF1F77
:100DF000F4A3FF1F1CA3FF1FA8A3FF1F08A4FF1F2E
:100E000008A3FF1F8CA3FF1FCCA3FF1FECA2FF1F93
:100E100064A3FF1FA4A3FF1F74A3FF1F10A4FF1F41
:100E200014A3FF1F5CA3FF1FB4A3FF1F0CA3FF1F8E
:100E3000D8A3FF1FD8A2FF1FD0A3FF1F04A3FF1F2B
:100E4000F8A2FF1F7CA3FF1F50A3FF1FECA3FF1FEF
:100E5000BCA3FF1F70A3FF1FE8A2FF1F60A3FF1F1B
:100E6000F0A2FF1FDCB7FF1FC0A3FF1F01F090FD22
:100E70008DF80F000DF10F00294600F0BFFB20692F
:100E8000D0F81C24D0F818349A42EFD103F0ACFA11
:100E9000284B1A68801A1860274C2046332101F02D
:100EA00063FA20462549264B1A8800F035FD03F0E9
:100EB0009BFA244D28602169627B40F6B833009389
:100EC0002046012301F038FB03F08EFA2B68C01A8C
:100ED00028601D4B1A8801321A801C4B186801309B
:100EE000186006F06BFE1A4B196807F04FF818B13E
:100EF0000D20012103F0F6F9144B186806F05EFE90
:100F00000446134B1968084606F0A4FD0146204626
:100F100007F05AF830B10D20002103F0E3F9002268
:100F20000A4B1A6003F060FA801B0A4B186004B089
:100F300070BD00BFC0A3FF1FDCB7FF1FF8AFFF1FCE
:100F4000F4AFFF1FA0A3FF1FE4A2FF1F30A3FF1FEA
:100F5000E4A3FF1FE8A2FF1F0023054A1380054AF0
:100F60001380054A1360054A1360054A13607047F1
:100F7000E6AFFF1F22A4FF1FECAFFF1FE0AFFF1F74
:100F8000E8AFFF1F2DE9F04F85B0CDE90023ADF8A4
:100F900008108DF80A00412840D00AD812281FD026
:100FA00002D8112815D0B4E1212820D022282AD037
:100FB000AFE1812858D005D8422843D0432800F01B
:100FC0001381A6E1822800F0AF80832800F04181E0
:100FD0009FE1D14A009B137001238DF80B3091E102
:100FE000CD4A009B137001238DF80B308AE1BDF9C7
:100FF0000030CA4AC3F3072141EA032313800223C6
:101000008DF80B307EE1BDF80030C44A190A41EA80
:101010000323138002238DF80B3073E1DDE90023F5
:10102000BF4B100E40EA0260110201F47F01014340
:10103000121202F47F420A431A6004228DF80B2038
:101040001A465FE1009BB64A180640EA136019028F
:1010500001F47F0101431B0A03F47F430B43136038
:1010600004238DF80B304DE1DDE90023DFF8B4E215
:10107000180E0021170641EA00060F4315024FF033
:1010800000084FF47F0908EA010809EA050948EA5F
:10109000060849EA07091D0645EA12251406002636
:1010A0004FF47F4734403D4048EA040849EA0509C7
:1010B0001D0245EA126514020026FF2734403D4018
:1010C00048EA040849EA05094FEA122A4AEA036A8B
:1010D0004FEA132B4FF07F44002504EA0A0405EA87
:1010E0000B0548EA040849EA0509160E46EA0326F4
:1010F0004FF47F020023164000EA030748EA06087F
:1011000049EA07090B464FF47F4000210BEA000231
:101110000B4042EA080243EA0903CEE90023082310
:101120008DF80B307246EDE0DDE90023DFF8F4E1E5
:10113000180E0021170641EA00060F4315024FF072
:1011400000084FF47F0908EA010809EA050948EA9E
:10115000060849EA07091D0645EA12251406002675
:101160004FF47F4734403D4048EA040849EA050906
:101170001D0245EA126514020026FF2734403D4057
:1011800048EA040849EA05094FEA122A4AEA036ACA
:101190004FEA132B4FF07F44002504EA0A0405EAC6
:1011A0000B0548EA040849EA0509160E46EA032633
:1011B0004FF47F020023164000EA030748EA0608BE
:1011C00049EA07090B464FF47F4000210BEA000271
:1011D0000B4042EA080243EA0903CEE90023082350
:1011E0008DF80B3072468DE0DDE90023180E0021EA
:1011F000150641EA050915024FF47F073D4049EA0B
:1012000005091D0645EA12254FF47F473D4049EA8E
:1012100005091D0245EA1265FF273D4049EA050917
:101220001D0A00272F4049EA0709002300EA0307A7
:1012300047EA0907002501EA05031F433A460B4622
:10124000CDE90023364B1F6004228DF80B201A468F
:1012500058E0DDE90023180E0021150640EA0108D8
:1012600041EA0509150200264FF47F0701EA06044A
:101270003D4048EA040849EA05091D0645EA1225E9
:10128000140600264FF47F4734403D4048EA0408E6
:1012900049EA05091D0245EA126514020026FF27E6
:1012A00034403D4048EA040849EA0509140A44EA82
:1012B00003641D0A4FF07F46002726402F4048EA6E
:1012C000060849EA0709160E46EA03264FF47F028C
:1012D0000023164000EA030746EA080647EA090722
:1012E0000B464FF47F40002105EA00020B403243D9
:1012F0003B43CDE900230B49C1E9002308238DF8C6
:101300000B300A46084B1B68039204AA12E903003B
:10131000984705B0BDE8F08FE4AFFF1F20A4FF1F82
:1013200024A4FF1F18A4FF1FE0AFFF1F2DE9F04FFB
:1013300083B006460F460378D52B40F0988043785B
:10134000D02B40F096800C46431813F8043CD52B64
:1013500040F09180431813F8033CD82B40F08D8067
:10136000081F002807DD00221346F15C4A400133C4
:101370008342FADB00E00022F31913F8023C9342A7
:101380007DD1424B1B6803B1984707F1FF3CBCF18C
:10139000020F1BDD701C032306EB04094FF000084D
:1013A00010F8012FD52A0ED14278D52A0BD11A4632
:1013B000634506DA01468D7801F8015F0132624526
:1013C000F9DB09F8018C01339C42E9D1042F49D99A
:1013D0004FF004080024002516F80830D52B37D12B
:1013E00008F1010292B2B35CD32B02D0D82B29D0E2
:1013F00033E008F1020A1FFA8AFA16F80A904FEA57
:1014000019125FFA82FB09F00F03013B022B12D87D
:10141000CDE90045BBF1080F21D80AF10201684669
:10142000314402F08BFCB24448469AF80110DDE9E1
:101430000023FFF7A7FD08F104081BFA88F81FFA3C
:1014400088F80DE0124B1B68DBB19847012019E0CA
:1014500008F101081FFA88F802E0904600E0D04643
:101460004745B9D80A4B1B68984701200AE000207D
:1014700008E0002006E0002004E0002002E0002058
:1014800000E0012003B0BDE8F08F00BFECAFFF1F0C
:10149000E8AFFF1F2DE9F04FADF6BC3D534B1B8865
:1014A0009C465A1E002A40F38B8000273C46DFF8FA
:1014B00048914F4E4F4DDFF83481B9F800100B19A9
:1014C00085FB030AD817C0EBAA1040F6B83A0AFB0E
:1014D0001030305CD52865D1581C85FB00AB4FEA35
:1014E000E07ACAEBAB1A40F6B83B0BFB1A00305C53
:1014F000D02857D1601D604556DA9A1C85FB020A38
:10150000D017C0EBAA100BFB1022B05CD52812D16B
:101510001A1D85FB020AD017C0EBAA100BFB102284
:10152000B25CA2F52C5080B2D52A0CBF4FF0060A4F
:101530004FF0050A10E0DA1C85FB02AB4FEAE27AB5
:10154000CAEBAB1A40F6B83B0BFB1A22B25C02EBBB
:10155000002080B24FF0040A04EB0A020244624504
:1015600024DC1AEB000A14D0214401EB0A0CEE46ED
:10157000C1EB0E0E40F6B83185FB032BDA17C2EB38
:10158000AB1201FB1232B25C0EF80320013363454B
:10159000F2D1011D684689B2FFF7C8FE38B1544444
:1015A000574404E0013702E0144600E06446013489
:1015B000B8F800309C465A1EA2423FF77EAF00E0CA
:1015C0000027BFB20C4A1188394489B20948A0FBF0
:1015D0000140800940F6B83404FB10111180DF1B74
:1015E000024A17800DF6BC3DBDE8F08FE6AFFF1F45
:1015F00028A4FF1FF119760522A4FF1F2DE9F0474B
:1016000040F6B833994232D80E461A4B1A880A442B
:1016100040F6B8339A4204DD0023164A1380164A76
:101620001380D9B1144BB3F80080124B1A880023F1
:10163000DFF848909044DFF848C040F6B837C45C03
:1016400008EB03028CFB025AD517C5EBAA1507FB62
:10165000152209F8024001339E42F0DC054B1A883E
:10166000114489B21980072901D9FFF713FFBDE89A
:10167000F08700BFE6AFFF1F22A4FF1F28A4FF1FB3
:10168000F1197605044BD5221A70D0225A70042223
:10169000024B1A80704700BFF8AFFF1FF4AFFF1F67
:1016A0000022094B1A7070B1084A531E411E12FAEB
:1016B00081F0002113F8012F4A40834201D01146E6
:1016C000F8E7014B1A707047F0AFFF1FF8AFFF1F2C
:1016D00038B5244B1C88244B1C80230AE2B2D52B3E
:1016E00005D0D52A1AD021498B70CA7025E0D52A99
:1016F0000ED11E49D5238B70CB700B714B71081D19
:101700000631221F02F01AFB0234164B1C8014E033
:10171000164BD5219970D9701A7104E0134A937051
:10172000D523D37013710F4C25881049081D05313E
:101730002A1F02F003FB013525800A4C2088FFF7A1
:10174000AFFF2088094BD5221A540344D8225A707F
:10175000074A12789A700022DA70043080B2208032
:1017600038BD00BFF4AFFF1FF2AFFF1FF8AFFF1F80
:10177000F0AFFF1F10B40C4B1B880C4AD524D45477
:101780001A44D324547012249470D070D529074A77
:101790001A44117106BF517106330533024A138092
:1017A0005DF8044B704700BFF4AFFF1FF8AFFF1F99
:1017B00030B4134B1A88134BD5249C541344D324B0
:1017C0005C7041249C70D870043292B218230D4C86
:1017D000D52541FA03F0C0B2D52805D1A554A018EB
:1017E0004570023292B202E0A054013292B2083B3C
:1017F00013F1080FEDD1024B1A8030BC704700BFC7
:10180000F4AFFF1FF8AFFF1F30B4134B1A88134B10
:10181000D5249C541344D3245C7043249C70D8700A
:10182000043292B218230D4CD52521FA03F0C0B230
:10183000D52805D1A554A0184570023292B202E015
:10184000A054013292B2083B13F1080FEDD1024BC4
:101850001A8030BC704700BFF4AFFF1FF8AFFF1F06
:101860002DE9F0011B490F881B49D526CE55394477
:10187000D3264E7083268E70C8700437BFB23821CD
:10188000DFF854C04FF0D508C1F12006A1F12000C7
:1018900022FA01F403FA06F6344323FA00F0044373
:1018A000E0B2D52808D10CF807800CEB070080F8CF
:1018B00001800237BFB203E00CF807000137BFB266
:1018C000083911F1080FDFD1024B1F80BDE8F0018C
:1018D000704700BFF4AFFF1FF8AFFF1F0369D3F8D5
:1018E0001C04D3F81834C01A704700BF704700BFFB
:1018F0000369D3F80C28B2F57A7F09D2D3F80C2803
:10190000501CC3F80C08134483F8201401207047BE
:10191000012303710020704730B40469D4F80C38F7
:10192000B3F57A7F1DD2D4F80C58C5F57A75D4F882
:101930000C3803F584632344954202D201220271DC
:101940002A4632B18D1811F8014B03F8014BA94218
:10195000F9D10369D3F80C181144C3F80C181046D8
:1019600002E001230371002030BC704738B5044603
:10197000084B0360036993F81028022A08D1D3F8B2
:1019800028582DB1284603F06BFC284603F060FE72
:10199000204638BDA0A7000010B4002202714FF409
:1019A0007A7484600273064A026041734FF40364E0
:1019B000044A04FB012101615DF8044B704700BF3C
:1019C000A0A700006489FF1F70B504460D46C368D8
:1019D0001B7813F0200F40F0B680836880211970C7
:1019E000C3681221197090F81138012B0BD022B95D
:1019F000002380F81038012070BD531EDBB2012B8C
:101A000000F2A38000E0012225B94FF08071504B15
:101A1000196005E0012D03D14FF000714C4B1960A6
:101A2000022A40F08C80D4F828684EB9082003F0D0
:101A30000BFE0646002103F0B5FBC4F828687EB112
:101A40003379102B0CD1304603F00AFC304603F0FA
:101A5000FFFD0023C4F82838012084F8100870BD69
:101A6000002D30D133689A8B92B2998B42F00802E4
:101A70009A83D4F82838197910313648364A42F812
:101A800021001A7953119B0003F1604303F5614370
:101A900002F01F02012101FA02F21A60D4F828387C
:101AA0001B689A8B92B2998B42F002029A83D4F807
:101AB00028381B7903F1804303F5043300221A70A0
:101AC00096221A7033E0012D31D1D4F828381B68E2
:101AD0009A8B92B2998B42F008029A83D4F82838F4
:101AE000197910311D481C4A42F821001A79531106
:101AF0009B0003F1604303F5614302F01F020121E3
:101B000001FA02F21A60D4F828381B689A8B92B254
:101B1000998B42F002029A83D4F828381B7903F19A
:101B2000804303F5043300221A7097221A700023B1
:101B300084F81E38022384F81038012070BD01207B
:101B400084F8100870BD002070BD012070BD00BF7A
:101B500000E100E0852F00000084FF1F952F0000AA
:101B600010B403469848814257D10D2A4DD8DFE87A
:101B700002F0070C11161B20252A2F34393E43474B
:101B800059682C200870012043E05968242008700F
:101B900001203EE0596855200870012039E059685D
:101BA0004F200870012034E0596819200870012086
:101BB0002FE059681320087001202AE05968452059
:101BC0000870012025E059680D200870012020E0F0
:101BD00059680B20087001201BE059680620087026
:101BE000012016E0596805200870012011E05968AD
:101BF0000220087001200CE059680120087008E0FC
:101C0000596800200870012003E05A680020107015
:101C10000D22996904240C70B3E16C48814253D1C0
:101C20000C2A49D8DFE802F0070C11161B20252AE0
:101C30002F34393E430059682C20087001203FE0C2
:101C400059682420087001203AE059681E20087065
:101C5000012035E059684F200870012030E05968B4
:101C60001520087001202BE059680F200870012012
:101C700026E059680E200870012021E059680C20E8
:101C8000087001201CE059680A200870012017E044
:101C9000596809200870012012E059680420087072
:101CA00001200DE0596802200870012008E0596801
:101CB00000200870012003E05A68002010700C22F8
:101CC000996904240C705CE1414881424DD10B2A92
:101CD00043D8DFE802F0060B10151A1F24292E3313
:101CE000383D59682720087001203AE059685A2089
:101CF0000870012035E059681C200870012030E090
:101D000059688520087001202BE05968142008705C
:101D1000012026E0596845200870012021E059681B
:101D20000D20087001201CE059680B20087001206C
:101D300017E0596809200870012012E05968032053
:101D4000087001200DE0596802200870012008E0A9
:101D5000596800200870012003E05A6800201070C4
:101D60000B22996904240C700BE11A4881424AD174
:101D7000092A40D8DFE802F0050A0F14191E2330A3
:101D8000353A596895200870012038E05968552087
:101D90000870012033E059688520087001202EE08A
:101DA000596815200870012029E0596845200870FD
:101DB000012024E059680C20087001201FE05968B8
:101DC0000A20087001201AE000879303007E560362
:101DD000006CDC02005125025968052008700120C2
:101DE0000DE0596802200870012008E059680020C1
:101DF0000870012003E05A680020107009229969D8
:101E000003240C70BDE06148814237D1072A2DD8E8
:101E1000DFE802F004090E13181D222759681F205D
:101E20000870012026E0596885200870012021E013
:101E300059681420087001201CE05968452008707A
:101E4000012017E059680B200870012012E0596842
:101E50000520087001200DE059680220087001205B
:101E600008E0596800200870012003E05A6800204B
:101E700010700722996902240C7082E04448814264
:101E80002CD1052A22D8DFE802F003080D12171C16
:101E900059681D20087001201CE059681420087042
:101EA000012017E0596843200870012012E05968AA
:101EB0000B20087001200DE05968032008700120F4
:101EC00008E0596800200870012003E05A680020EB
:101ED00010700522996901240C7052E02D4881424E
:101EE00021D1032A17D8DFE802F002070C11596844
:101EF00014200870012012E059680B20087001209E
:101F00000DE0596803200870012008E0596800209E
:101F10000870012003E05A680020107003229969BC
:101F200001240C702DE01C48814215D112B1012A08
:101F300005D009E059680B200870012008E05968B5
:101F400000200870012003E05A6800201070012270
:101F5000996900240C7014E0104881420CD122B918
:101F60005A6800211170012002E05A6800201070A8
:101F7000996900220A7004E0596800200870996984
:101F8000087083F814285DF8044B704700366E0122
:101F90000024F40000127A0000093D0080841E0035
:101FA000F8B504469DF8180000284DD0E5682D7856
:101FB00015F0200F44D147E0012A0ED128B1002BA3
:101FC0005AD053E0132002F0BFF9012384F81238ED
:101FD0003F4B1D60043B1D6060E028B1002B57D0D3
:101FE00050E0102002F0B0F9002384F81238394B89
:101FF0001D60043B1D6051E0012923D1042A0FD14B
:1020000028B1002B52D04BE01D2002F09DF9042393
:1020100084F81238304B1E6004331E600120F8BD76
:1020200028B1002B4ED047E01A2002F08DF903238F
:1020300084F81238294B1D60043B1D600120F8BD57
:102040000020F8BD0120F8BD002B40F2032508BF99
:102050004FF4197540F2036640F26467002B08BF25
:102060003E4684F813380029C6D1A5E71220022184
:1020700002F06AF90221A5E71220002102F064F9BA
:1020800000219FE71120022102F05EF90221A8E75A
:102090001120002102F058F90021A2E70120F8BD2B
:1020A0001E20022102F050F90221ADE71E2000217E
:1020B00002F04AF90021A7E71F20022102F044F9AB
:1020C0000221B1E71F20002102F03EF90021ABE719
:1020D00004A004400CA0044000D004402CB00440F4
:1020E000F0B583B004469DF820009DF82C600D46A5
:1020F00029B931490F6847F040070F6006E0012910
:1021000004D12D490F6847F080070F6084F811282B
:10211000002184F816183AB9636920221A702268DF
:102120001170E269117011E0626900283CD132E05F
:102130005B00DBB21370E2694300DBB205E04000F4
:10214000C0B21070E2695B00DBB213700023009331
:10215000204629469DF824209DF82830FFF720FFCF
:1021600094F81238022B20460CBF14491449324609
:10217000FFF7F6FC204629469DF83020FFF724FCA7
:1021800094F811381BB9A36880221A7012E0A36872
:10219000C0221A700EE02021117022685B00DBB2B1
:1021A0001370E2690023D0E7282111702268984259
:1021B000BED8C4E703B0F0BD3480044000A24A0496
:1021C000005125022DE9F04F83B082468B4690F8EE
:1021D0001238042B4FD8DFE803F03134030609002E
:1021E000172616242FE01E261D242CE01F261A2455
:1021F00029E02046494602F075F82B46013B7FF462
:10220000FDAF2046414602F06DF82B46013B7FF4BE
:10221000FDAF304602F08AF818B9013F17F0FF070A
:10222000E7D100218AF816189AF812289AF813387C
:10223000009150465946FFF7B3FE1CE012261324C6
:1022400001E0112610249AF81338002B304614BFF1
:102250000221002102F078F82046012102F042F824
:102260002046012102F070F80B274FF00009782575
:102270004FF00108CDE703B0BDE8F08F2DE9F8433A
:10228000054688461646994602F0AEF80746AB6802
:102290001A7812F0200F0ED0B4221A7032E0EC68D7
:1022A000247814F0200F06D1002385F81138AB688C
:1022B000B0221A7006E0002EF1D002F095F8C01B93
:1022C0008642ECD8AB681B7813F0200F0ED128465D
:1022D0004146FFF777FFEB681B7813F0200F05D11D
:1022E000002385F81138AB68B0221A70AB681B78F0
:1022F00003F0200303F0FF0023B9042385F8163808
:10230000BDE8F88395F81038013BDBB2012B20D8EB
:1023100001F0E8FD124B134AB8F1000F18BF134645
:102320001B78984218DC0F2804DC012089F8000093
:10233000BDE8F8830A4B0B4AB8F1000F14BF904672
:102340009846A0F11003DBB288F800300120BDE808
:10235000F8830120BDE8F8830120BDE8F88300BFC1
:1023600018E400E019E400E00369490083F8201450
:1023700003690122C3F80C2800230371026982F863
:10238000163870472DE9F04383B0054614461F46C2
:1023900000238DF80730D0F80C38002B00F0C880EF
:1023A0000FB9D0F82C78EB6812221A7028463A46FA
:1023B0000DF10703FFF762FF002800F0B98095F8E0
:1023C00010381BB19DF80720002A54D002F00CF8F9
:1023D0008146012385F8163885F8154800264FF008
:1023E00002082BE02B69AA1992F820241A70EC68D5
:1023F000217811F0020FFBD084F80080EB68197887
:10240000C9B211F0100F09D0072385F81638AB6850
:1024100080221A70EB6810221A701BE011F0010F75
:102420000BD01EB9052385F8163802E0062385F87F
:102430001638AB6880221A700CE00136D5F80C38DB
:102440009E4207D2002FCDD001F0CEFFC9EB000095
:102450008742C7D8D5F80C38B3428CBF0423002379
:1024600085F8163895F81538012BAB680CBF80221B
:10247000B0221A705CE05A1ED2B2012A58D801224A
:1024800085F8162885F815480022C5F80828022B7B
:1024900014D1D5F80C38042B18D80FE013689B68BA
:1024A00033B9136800210120187259729972D972D8
:1024B000136800221A765A769A76DA76AB68F0229A
:1024C0001A702B6995F820241A7031E0012385F8E1
:1024D0001E38D5F8282805F22240D5F80C48033CD0
:1024E00011680B68002308601168012008714B71A6
:1024F0001168CB71116808724B728B72CB721168C4
:102500006042C8601068C18BA1B2C1831268D08AD2
:10251000D182D5F8282829691068046901611068FA
:102520000375437510688371B1F1804FB9D3B5E776
:1025300003B0BDE8F08300BF08B5084611461A464F
:10254000029BFFF71FFF002008BD00BF2DE9F043ED
:1025500083B0044616469DF828700B9D00208DF828
:102560000700002B00F04E81B3F57A7F03D90823D2
:1025700084F8163846E1C4F818380023C4F8183433
:10258000C4F81C340DB9D4F82C58E36812221A7020
:1025900020462A460DF10703FFF770FE002800F0E1
:1025A000318194F8103823B19DF80720002A00F0FB
:1025B000968001F019FF8046022384F8163884F8CB
:1025C00015782369720042F00102D2B21A70E268F3
:1025D000137813F0020FFBD002231370E3681B780B
:1025E000DBB213F0100F09D0072384F81638A36864
:1025F00080221A70E36810221A7003E113F0010FB1
:1026000006D0052384F81638A36880221A70F9E0F2
:10261000032384F81638D4F81838012BA3680CBFAC
:10262000A822A0221A7023691B780226002745E001
:102630000B7813F0020FFBD00E70002D00F0AA8073
:1026400001F0D2FEC8EB000085428CBF00230123BD
:10265000D4F81C140231D4F81828914205D03BB1AB
:1026600094F81D2822B900E03B46A26882F8009049
:10267000D4F81C140131D4F81828914280F09F80BE
:10268000002B00F0918094F81D28002A40F0AA80C9
:102690008AE0042284F8162801E084F8167894F879
:1026A0001528012A06D11822013A7FF4FDAFA2684D
:1026B0008021117023B1012384F81D384FF0A8093F
:1026C000D4F81C24D4F818389A4280F09B8094F8EF
:1026D0001638DBB2032B40F09580E168A8E75A1E5C
:1026E000D2B2012A00F28E80022284F8162884F8E1
:1026F0001578934244D1D4F81838042B40D90123DB
:1027000084F81E38D4F82838216918680268002235
:1027100001601868027142711868C271B1F1804F8E
:1027200002D31A68926832B91A6800210120107227
:1027300051729172D1721A68002313735373937399
:10274000D373D4F8282804F13005D4F818080138D8
:1027500011680F690D61116801250D754B751168C0
:102760008B7111680D724B728B72CB721368414280
:1027700099611368D98B81B2D9831368DA8AD982B7
:10278000A368F0221A702369720042F00102D2B2EB
:102790001A7037E0D4F81C240232D4F818389A4260
:1027A0003FF462AF3B4663E722691178D4F81C24FA
:1027B000501CC4F81C04224482F830107AE784F8D4
:1027C0001D78A268B021117022691178D4F81C24F8
:1027D000501CC4F81C04224482F83010002B3FF433
:1027E0005CAF56E784F81D78A268B02111702269A9
:1027F0001178D4F81C24501CC4F81C04224482F81C
:10280000301046E703B0BDE8F08300BF90F81638FB
:1028100013F0FF0F1BD090F81638DBB2052B18D041
:1028200090F81638DBB2062B15D090F81638DBB2CC
:10283000072B12D090F81638DBB2042B0FD090F88B
:102840001608C0B2082814BF0020012070470120DC
:102850007047012070470120704701207047012018
:10286000704700BF70B5044615460AB9D0F82C5819
:1028700001F0BAFD06462046FFF7C8FF00283AD10E
:10288000002DF8D001F0B0FD801B8542F3D801F097
:10289000ABFD801B854210D894F81038022B0CD168
:1028A00094F81E3813F0FF0F07D02046FFF7AEFF55
:1028B0000028FAD0042384F8163894F81638DBB2CE
:1028C000012B09D094F81638DBB2022B04D094F80F
:1028D0001638DBB2032B02D1042384F816386023A8
:1028E000013B7FF4FDAF94F8163813F0FF0F14BFCF
:1028F0000020012070BD002DDFD0C8E770B582B088
:1029000004460D461E468BB19DF81830009307997A
:10291000019129463346FFF719FE20462946079ABA
:10292000FFF7A0FF20B1D4F81C0402E0002000E073
:10293000002002B070BD00BFD0F81824D0F81C34BD
:102940009A4208D2D0F818345A1CC0F818241844F7
:1029500090F8300070474FF0FF30704708B50069BD
:10296000FFF7EAFF08BD00BFD0F81824D0F81C34E8
:102970009A423DBFD0F81834C01890F830004FF09C
:10298000FF30704708B50069FFF7EEFF08BD00BFD4
:10299000D0F81824D0F81C349A4208D2D0F8183451
:1029A0005A1CC0F81824184490F8300070470020D2
:1029B000704700BF38B50446C2681578EDB281682B
:1029C0000B78DBB213F0200F00F0C38113F0100F6F
:1029D00000F0058190F81E38DBB2022B04D090F88D
:1029E0001E38DBB2032B4CD1D4F828180B689B8B14
:1029F00003F080039BB2002B00F0808294F81E3815
:102A0000DBB2022B40F07A826EE2137813F0800F73
:102A1000FBD00A79B54B1A70002384F81E38D4F81D
:102A20000C38013BC4F808382369D4F8082822443C
:102A300092F820241A7020E0AD4B1A680B7901211E
:102A40009940114219D0AB4A1370D4F828381A793A
:102A5000A94B1A70002384F81E3815F0100F0CD003
:102A6000072384F81638A36880221A70E3681222BC
:102A70001A700023C4F8083838BDE36802221A70BF
:102A800038BD90F81638DBB2012B56D115F0100F77
:102A90000DD0002380F81E38072280F816288022E7
:102AA0000A70C26812211170C0F8083838BD15F0DC
:102AB000010F0FD0002380F81E38D0F808381BB95A
:102AC000052380F8163802E0062380F816388023A4
:102AD0000B702EE0D0F808380133C0F80838D0F871
:102AE0000C2893420AD3002380F8163890F8153842
:102AF000012B0CBF8023B0230B701AE090F81E3816
:102B0000DBB2012B0ED1022380F81E38F1230B70AB
:102B1000D0F828381A79794B1A70036990F8212473
:102B20001A7006E00369D0F80828024492F82024BD
:102B30001A70E36802221A7038BD90F81638DBB2BA
:102B4000022B36D115F0100F08D0072380F8163865
:102B500080230B70C36812221A7038BD15F0010F64
:102B600005D0052380F8163880230B701DE090F8FF
:102B70001E38DBB2012B0CD1022380F81E38E12372
:102B80000B70D0F828381A795C4B1A7003691B78DF
:102B90000BE0032380F81638D0F81838012B0CBF4F
:102BA000E823E0230B7003691B78E36802221A70A4
:102BB00038BD90F81638DBB2042B0AD190F81538DE
:102BC000012B0CBF8023B0230B70C36802221A7044
:102BD00038BD80230B70C36802221A7038BD90F88C
:102BE0001E38DBB2022B04D090F81E38DBB2032B68
:102BF00056D1D4F828381A68928B02F0800292B22B
:102C0000002A00F08C8194F81E28D2B2022A40F0EB
:102C100086817AE11A79354B1A70002384F81E38C0
:102C200094F81638DBB2042B1CBF002384F8163846
:102C3000A368B0221A70D4F81838013BC4F81C34C9
:102C4000D4F81C345A1CC4F81C242269127823447A
:102C500083F8302094F81538012B1DD11823013B3F
:102C60007FF4FDAFA36880221A7015E0204A126835
:102C70001B790121994011420ED01F4A1370D4F8DC
:102C800028381A791B4B1A70002384F81E3884F8F0
:102C90001638A36880221A70E36802221A7038BDC1
:102CA000D0F81C240232D0F818389A4200F03E8145
:102CB00090F81638DBB2042B04D190F81D38002BA5
:102CC00000F03481D4F81C240132D4F818389A4228
:102CD00080F03A8194F81638DBB2042B40F0298159
:102CE00094F81D38002B40F02F8122E11C80004019
:102CF0002C8000401F8000401E8000401B80004050
:102D0000002384F81638A368B0221A70D4F81C3453
:102D10005A1CC4F81C2422691278234483F83020FA
:102D200094F81538012B06D11823013B7FF4FDAF31
:102D3000A36880221A7094F81638DBB2042B04D1F1
:102D400094F81D38002B00F00981E36802221A7004
:102D500038BD15F0100F08D01023137015F0400F78
:102D600006D1C36802221A7038BD15F0400F60D03A
:102D700094F81638DBB20A2B04D1D4F82038002B93
:102D800040F0F08015F0040F1ED0092384F81638A7
:102D90000023C4F80C38A368D0221A7023691B786A
:102DA0005B0884F81738D4F8243803B19847D4F86E
:102DB0000C380BB984F82034236994F820241A7055
:102DC0000123C4F8083830E0002384F81C3894F854
:102DD00012382BB912206849032201F013FA16E0C9
:102DE000012B05D111206449032201F00BFA0EE0FA
:102DF000032B05D11E206149032201F003FA06E0EE
:102E0000042B04D11F205D49032201F0FBF90A23A2
:102E100084F816380023C4F81C34A368C0221A7042
:102E200023691B785B0884F81738E36802221A705C
:102E300038BD13F0100F20D015F0010F15D1D0F8C8
:102E40000828D0F80C389A4208D2D0F808385A1C12
:102E5000C0F80828034493F8202400E000222369E6
:102E60001A70A368D0221A703AE0C0230B7003696D
:102E70001B78002380F8163832E0002380F81C38D5
:102E800090F812382BB912203B49032201F0BAF90D
:102E900016E0012B05D111203749032201F0B2F9C8
:102EA0000EE0032B05D11E203449032201F0AAF9BC
:102EB00006E0042B04D11F203049032201F0A2F9BF
:102EC00023691B78DAB2D4F81C34B3F57A7F07D2C1
:102ED000D4F81C34591CC4F81C14234483F8302043
:102EE000E36802221A7038BD0A79254B1A70A3686C
:102EF000F0221A70032384F81E38BEE594F81E38B9
:102F0000DBB2032B7FF498AD7FE51A791C4B1A7066
:102F1000A368E8221A70032384F81E38BCE694F8EC
:102F20001E28D2B2032A7FF4A1AE73E6E8230B7009
:102F3000C8E6D4F81C345A1CC4F81C242269127840
:102F4000234483F83020F6E6002384F81D3894F8F3
:102F50001638DBB2042B7FF4D3AED4E6012384F819
:102F60001D38F2E60023C4F81834D4F81C04D4F851
:102F70002038984706E700BF49300000593000006C
:102F80001F80004008B502480021FFF713FD08BD6F
:102F90006489FF1F08B502480121FFF70BFD08BD3A
:102FA0009491FF1F10B50446C3681B7813F0200FDF
:102FB00024D1002380F8163890F812381BB912205B
:102FC00001F068F910E0012B03D1112001F062F942
:102FD0000AE0032B03D11E2001F05CF904E0042B6E
:102FE00002D11F2001F056F9D4F8203853B3002243
:102FF000C4F81824D4F81C04984710BD90F81C3865
:103000000133DBB280F81C38012B03D890F811385B
:10301000012B17D094F812381BB9122001F03AF99D
:1030200010BD012B03D1112001F034F910BD032B89
:1030300003D11E2001F02EF910BD042B02D11F2058
:1030400001F028F910BD00BF08B502480021FFF7C4
:10305000A9FF08BD6489FF1F08B502480121FFF7D9
:10306000A1FF08BD9491FF1F70B50B4E30460021A3
:10307000FEF792FC094D0A4C30462946224604F0E0
:10308000B7FF084E30460121FEF786FC3046294640
:10309000224604F0ADFF70BDDCB7FF1F6D190000C4
:1030A0006089FF1FC8B7FF1F2DE9F003072A2CD83E
:1030B000431E4C1E013A062A00F26682DFE802F047
:1030C000221C17110C0804000B7803700C460346F1
:1030D00062785A70013401335A1C611C64785C7048
:1030E00001E021461A46531C4C1C497851705A1C69
:1030F000611C64785C7001E021461A46531C4C1C2C
:103100004978517062785A703EE2431E4D1E1E4649
:1031100003F00304032C0AD00D4611F8014B03F809
:10312000014F013A1E4603F00304032CF4D1691C3D
:1031300001F00301032900F22782DFE811F0040007
:103140006A0003019501DE1EEF1E4FEA920C1CF08F
:10315000070F0CD0013501331E462F4655F8041BCE
:1031600043F8041B0CF1FF3C1CF0070FF4D14FEAAD
:10317000DC0C0CF1FF34BCF1000F1BD031463B4698
:103180005D684D609D688D60DD68CD601D690D6175
:103190005D694D619D698D61DD69CD6153F8205F89
:1031A00041F8205F013CB4F1FF3FE9D14FEA4C1CEC
:1031B00066446744F31CF91C02F00302013A062A34
:1031C00000F2E281DFE802F0221C17110C08040073
:1031D000331D391D3A7932714A785A700131013301
:1031E0005A1C4C1C4978597001E00C461A46531C75
:1031F000611C647854705A1C4C1C4978597001E069
:103200000C461A46531C611C647854704A785A70F4
:10321000BAE1F11E21F003010F46033D25F003053D
:10322000930805F1040C6C6813F0070F0ED00835F5
:103230000431260AAC4655F8044B0F4646EA0466AC
:1032400041F8046B013B13F0070FF2D14FEAD308AA
:1032500008F1FF35B8F1000F3BD0394663465E6890
:103260004FEA066949EA14244C609C684FEA0469F5
:1032700049EA16268E60DE684FEA066949EA142498
:10328000CC601C694FEA046949EA16260E615E6942
:103290004FEA066949EA14244C619C694FEA0469C3
:1032A00049EA16268E61DE694FEA066949EA142466
:1032B000CC6153F8204F4FEA046949EA162641F8D9
:1032C000206F013DB5F1FF3FC9D14FEA4818C44412
:1032D0004744FB1C02F00302013A062A00F2548123
:1032E000DFE802F02C251E17100A04003B1D9CF895
:1032F00001203A710CF1010C9CF801205A700CF17C
:10330000010C01335A1C0CF101019CF801405C7066
:1033100001E061461A46531C01F1010C49785170D5
:103320005A1C0CF101019CF801405C7001E06146FF
:103330001A46531C01F1010C497851709CF8012088
:103340005A7021E1F11E21F003010F46033D25F0E3
:103350000305930805F1040C6C6813F0070F0ED0F9
:1033600008350431260CAC4655F8044B0F4646EAA6
:10337000044641F8046B013B13F0070FF2D14FEA0A
:10338000D30808F1FF35B8F1000F3BD0394663464A
:103390005E684FEA064949EA14444C609C684FEA6B
:1033A000044949EA16468E60DE684FEA064949EA52
:1033B0001444CC601C694FEA044949EA16460E6180
:1033C0005E694FEA064949EA14444C619C694FEA38
:1033D000044949EA16468E61DE694FEA064949EA20
:1033E0001444CC6153F8204F4FEA044949EA164689
:1033F00041F8206F013DB5F1FF3FC9D14FEA4818B0
:10340000C4444744FB1C0CF1010102F00302013AE1
:10341000062A00F2B980DFE802F0241E19130E0A12
:1034200004003B1D0CF102019CF802203A714A781D
:103430005A70013101335A1C4C1C4978597001E013
:103440000C461A46531C611C647854705A1C4C1C60
:103450004978597001E00C461A46531C611C647887
:1034600054704A785A708FE0F11E21F003010F4624
:10347000033D25F00305930805F1040C6C6813F077
:10348000070F0ED008350431260EAC4655F8044B14
:103490000F4646EA042641F8046B013B13F0070F80
:1034A000F2D14FEAD30808F1FF35B8F1000F3BD055
:1034B000394663465E684FEA062949EA14644C605F
:1034C0009C684FEA042949EA16668E60DE684FEA76
:1034D000062949EA1464CC601C694FEA042949EAC8
:1034E00016660E615E694FEA062949EA14644C616A
:1034F0009C694FEA042949EA16668E61DE694FEA43
:10350000062949EA1464CC6153F8204F4FEA042994
:1035100049EA166641F8206F013DB5F1FF3FC9D178
:103520004FEA4818C4444744FB1C0CF1020102F066
:103530000302013A062A27D8DFE802F0241E1913F5
:103540000E0A04003B1D0CF103019CF803203A71A4
:103550004A785A70013101335A1C4C1C4978597011
:1035600001E00C461A46531C611C647854705A1CC6
:103570004C1C4978597001E00C461A46531C611CDA
:10358000647854704A785A70BDE8F003704700BF01
:1035900008B5024B1B68984708BD00BF0CB8FF1F59
:1035A00010B41C490A791C4B1A701C4B1A78D2B201
:1035B0001B4B1B780968C98A13FA81F33F2B88BF1C
:1035C000403B9A4213D0012016490870934288BFAD
:1035D0004032D01A72B60F490A68D48A80B2D082BB
:1035E000D48BD0830979104A117062B606E00021AD
:1035F0000C4A11704FF480410C4A11600C4A126859
:103600000AB100211170DBB2054A13705DF8044B5A
:10361000704700BF00B8FF1F1F800040FEB7FF1FAC
:1036200020B8FF1F14B8FF1F1B80004004E200E019
:1036300010B8FF1F08B5024B1B68984708BD00BFB4
:1036400008B8FF1F244B1A79244B1A70244A1378A8
:10365000013303F03F03D9B21170224A1168224AA4
:103660001268B2F1FF3F1DD020480078C0B28342FB
:103670002EBFC0EB0300C0F14000C01880B28242F0
:1036800008DC4FF400521A4B1A601A4B1B680122D7
:103690001A607047B1F1FF3F07D1164B1B6801223A
:1036A0001A607047B1F1FF3F0DD0134AD35CDBB213
:1036B0008B4203D14FF400520D4B1A600D4B1B6827
:1036C00001221A6070474FF40052094B1A60094BEF
:1036D0001B6801221A60704718B8FF1F1F80004046
:1036E00016B8FF1FF8B7FF1FF0B7FF1F15B8FF1F71
:1036F00004E200E0F4B7FF1F0082FF1F10B504468C
:1037000001F0AEFD204610BD2DE9F84F0122974B88
:103710001A6040F21334964B1C604FF4517404331A
:103720001C60C1F34434934B1C70C1F347145C70AC
:1037300001F01F019972002199700221D9745A7504
:1037400088221A74AC22DA70A022DA72437B23B189
:10375000884B9A7842F080029A70874B1B681A69EE
:103760000022864919611A755A759A719A6822B9A8
:10377000012119725A729A72DA7200241C765C76F0
:103780009C76DC76DFF828A20AF1400219681A60FC
:10379000DFF8E4B1DBF8003001261E715C714FF0F8
:1037A000300983F807901E725C729C72DC721C7385
:1037B0005C739C73DC73DA8B4025DD83DA8ADD82EF
:1037C0009BF80420DFF8EC8102F110036C4948F803
:1037D000231053119B0003F1604303F5614302F092
:1037E0001F0206FA02F21A60DBF800309A8B92B2DE
:1037F000998B42F002029A839A8B92B2998B42F093
:1038000008029A839BF8043003F1804303F50433E4
:103810001C7083221A702E205A4900F0EBFCC02243
:10382000594B1A704FF48042A3F22A331A609BF866
:10383000043003F1604303F564431D709BF80430CA
:1038400003F1604303F564431A78504B1A80504AE1
:10385000136819684949196013681C715C71DC713F
:103860001C735C739C73DC730AEB060118691961A5
:103870001E755C7583F806901E725C729C72DC7219
:103880001C765C769C76DC76D98BDD83D98ADD82EA
:10389000117901F110033F4848F823004B119B00B8
:1038A00003F1604303F5614301F01F0106FA01F7DC
:1038B0001F601368998B89B2988B41F0020199833C
:1038C000137903F1804303F504331C70362104F1AE
:1038D000804404F50434304D304807E01A78D2B201
:1038E0008A423ED001338342F8D12FE02378DBB205
:1038F0008B4236D02B46F1E7254C237903F18043E8
:1039000003F5043300221A7082221A702D202449F4
:1039100000F070FCC022234B1A704FF40052A3F247
:1039200029331A60237903F1604303F5644340228D
:103930001A70236803F116011B4A11600122C3F8B3
:1039400016202279194B1A70BDE8F88F104B1B799D
:1039500003F1804303F5043361F07F01C9B21970AC
:10396000CAE701314029C1D1C6E700BFA80690428D
:1039700040A0044000A0064000B8FF1F07A006407A
:10398000A1350000913500002EE400E0FCB7FF1FD8
:1039900018B8FF1F45360000011002401010024009
:1039A000353600002DE400E0F4B7FF1F1B80004017
:1039B0000082FF1F0084FF1F164B9B7803F0EC036F
:1039C00001F00302134311F0040F18BF43F010037A
:1039D000104A937001F00F03042B04D1134692791F
:1039E00042F040029A710B4B5A7902F0EF0211F04B
:1039F000100F18BF42F01002064B5A719B7903F06A
:103A0000EF0311F0200F18BF43F01003014A937128
:103A1000704700BF00A0064010B50446144B1B6859
:103A200013F0020F22D0134B1B6813F0020F1DD0AE
:103A3000114B1B6813F4806F18D02D200F4900F034
:103A4000D9FB23685B6920469847142000F0F0FCFE
:103A50000B4A0023D37040F203110A48016004307E
:103A60000160D372084A1370084A137010BD00BF7A
:103A7000408004403C80044034800440D55F000016
:103A800000A0064040A0044020B8FF1FFEB7FF1F63
:103A900038B50D460C4B1B7813F0FF0F06D00A4CBF
:103AA00001F00AFE237813F0FF0FF9D12846012117
:103AB00000F04AFC2846002100F014FC034B53F8A8
:103AC0003520034B1A6038BD14B8FF1FB8A700009B
:103AD00010B8FF1F38B50B4D0B4C01F0EDFD2A78E7
:103AE0002378D2B29A42F8D1084B1B7813F0FF0F1B
:103AF00006D0064C01F0E0FD237813F0FF0FF9D15A
:103B000038BD00BFFEB7FF1F20B8FF1F14B8FF1F4E
:103B1000064B1B78DBB2064A1278D2B293422CBF16
:103B20003F3202F1FF32D01A704700BFFEB7FF1FCD
:103B300020B8FF1F2DE9F8430F4615461E4B1E788F
:103B4000F6B2FFF7E5FFA84238BF0546AC193F2C97
:103B500011D9403CC6F14008DFF8609009EB06003F
:103B600039464246FFF7A0FA484607EB08012246CD
:103B7000FFF79AFA05E01148304439462A46FFF724
:103B800093FAE4B20C4B1C700D4B1B7813F0FF0F33
:103B90000ED101220A4B1A7072B60A4A1368D98AEA
:103BA000A9B2D982D88BD9831279074B1A7062B621
:103BB0002846BDE8F88300BFFEB7FF1F4082FF1F05
:103BC00014B8FF1F00B8FF1F1B80004000B583B072
:103BD00002AB43F8041D19460122FFF7ABFF03B007
:103BE0005DF804FB054B1878C0B2054B1B78DBB2BF
:103BF000984238BF4030C01A704700BF16B8FF1F48
:103C000015B8FF1F094B1A78D2B2094B1B78DBB2EB
:103C10009A4208D0013303F03F03064AD05CDBB27E
:103C2000034A137070474FF0FF30704716B8FF1FFC
:103C300015B8FF1F0082FF1F084B1A78D2B2084B3D
:103C40001B78DBB29A4206D0013303F03F03054AEA
:103C5000D05CC0B270474FF0FF30704716B8FF1FFE
:103C600015B8FF1F0082FF1F024B1A78D2B2024B19
:103C70001A70704716B8FF1F15B8FF1F70B50B4EAE
:103C80003046002101F08EFA094D0A4C3046294693
:103C9000224604F0ADF9084E3046002101F082FAC8
:103CA00030462946224604F0A3F970BD00B8FF1F34
:103CB000FD3600006089FF1F18B8FF1F70B50B4E5E
:103CC0003046002101F06EFA094D0A4C3046294673
:103CD000224604F08DF9084E3046002101F062FAC8
:103CE00030462946224604F083F970BD2CB8FF1FE8
:103CF000FD3600006089FF1F24B8FF1F70B50B4E12
:103D00003046002101F04EFA094D0A4C3046294652
:103D1000224604F06DF9084E3046002101F042FAC7
:103D200030462946224604F063F970BD3CB8FF1FB7
:103D3000FD3600006089FF1F34B8FF1F844641EA4A
:103D4000000313F003036DD1403A41D351F8043B13
:103D500040F8043B51F8043B40F8043B51F8043B65
:103D600040F8043B51F8043B40F8043B51F8043B55
:103D700040F8043B51F8043B40F8043B51F8043B45
:103D800040F8043B51F8043B40F8043B51F8043B35
:103D900040F8043B51F8043B40F8043B51F8043B25
:103DA00040F8043B51F8043B40F8043B51F8043B15
:103DB00040F8043B51F8043B40F8043B51F8043B05
:103DC00040F8043B51F8043B40F8043B403ABDD274
:103DD000303211D351F8043B40F8043B51F8043B16
:103DE00040F8043B51F8043B40F8043B51F8043BD5
:103DF00040F8043B103AEDD20C3205D351F8043BA5
:103E000040F8043B043AF9D2043208D0D2071CBF70
:103E100011F8013B00F8013B01D30B880380604699
:103E2000704700BF082A13D38B078DD010F003030F
:103E30008AD0C3F10403D21ADB071CBF11F8013B7F
:103E400000F8013B80D331F8023B20F8023B7BE7CE
:103E5000043AD9D3013A11F8013B00F8013BF9D2F9
:103E60000B7803704B7843708B7883706046704793
:103E7000024B1A6801321A60704700BFCCB8FF1FAE
:103E800008B50D4C236813F4802F01D000F026FCF8
:103E9000236813F4806F01D002F09CF8236813F4B8
:103EA000006F01D002F022FC236813F4805FE9D098
:103EB00002F0DAFEE6E700BF3480044008B5FFF701
:103EC000DFFF00BF1022014B1A8070470020054021
:103ED000704700BF024A13681844106018467047C4
:103EE000C499FF1FEFF31383ABB9EFF31083ABB9A2
:103EF000EFF3058323B10F2B05D9094A985C03E042
:103F00004FF4807000E00020EFF311833BB1834257
:103F100038BF184670474FF0FF3070470020704799
:103F2000F0E300E010B5154B1C681C6014F4805FD2
:103F300005D0134BDB6813B1114BDB68984714F4C1
:103F4000005F05D00E4B1B6913B10D4B1B699847E1
:103F500014F0200F05D00A4B1B6E13B1084B1B6EDB
:103F6000984714F0100F07D0054BD3F884301BB1DD
:103F7000034BD3F88430984710BD00BFA090044095
:103F800044B8FF1F10B5274B1C681C6014F4803F19
:103F900005D0254B1B6813B1234B1B68984714F4BD
:103FA000003F05D0204B5B6813B11F4B5B689847FF
:103FB00014F0010F05D01C4B1B6C13B11A4B1B6C7A
:103FC000984714F0020F05D0174B5B6C13B1164BDA
:103FD0005B6C984714F0080F05D0134B9B6C13B122
:103FE000114B9B6C984714F0040F05D00E4BDB6C03
:103FF00013B10D4BDB6C984714F4002F05D00A4B1E
:104000005B6E13B1084B5B6E984714F4802F07D09A
:10401000054BD3F880301BB1034BD3F88030984761
:1040200010BD00BFA0A0044044B8FF1F10B5384B1E
:104030001C681C6014F0080F05D0364B5B6A13B186
:10404000344B5B6A984714F0100F05D0314B9B6AD4
:1040500013B1304B9B6A984714F0400F05D02D4B9D
:10406000DB6A13B12B4BDB6A984714F0800F05D045
:10407000284B1B6B13B1274B1B6B984714F0200F79
:1040800005D0244B5B6B13B1224B5B6B984714F04C
:10409000010F05D01F4BDB6B13B11E4BDB6B984739
:1040A00014F0020F05D01B4B9B6D13B1194B9B6D88
:1040B000984714F0040F05D0164BDB6D13B1154B68
:1040C000DB6D984714F4007F05D0124BDB6E13B103
:1040D000104BDB6E984714F4807F05D00D4B1B6F9F
:1040E00013B10C4B1B6F984714F4806F05D0094B2C
:1040F0005B6F13B1074B5B6F984714F4006F05D0EB
:10410000044B9B6F13B1034B9B6F984710BD00BFCF
:10411000A0B0044044B8FF1F10B5264B1C681C60BB
:1041200014F0010F05D0244B9B6813B1224B9B6800
:10413000984714F0800F05D01F4B5B6913B11E4BDD
:104140005B69984714F0100F05D01B4B9B6913B1A6
:10415000194B9B69984714F0040F05D0164BDB6987
:1041600013B1154BDB69984714F0080F05D0124BBB
:104170001B6A13B1104B1B6A984714F0020F05D04D
:104180000D4B9B6B13B10C4B9B6B984714F0200F9E
:1041900005D0094B1B6D13B1074B1B6D984714F0ED
:1041A000400F05D0044B5B6D13B1034B5B6D98471B
:1041B00010BD00BFA0C0044044B8FF1F10B50B4B9A
:1041C0001C681C6014F0020F05D0094B9B6E13B1E4
:1041D000074B9B6E984714F0010F05D0044BDB6F23
:1041E00013B1034BDB6F984710BD00BFA0D0044054
:1041F00044B8FF1F1030024B43F82010704700BF37
:104200000084FF1F30B4212831D8042A2FD8DFE8DA
:1042100002F00709050B03000B2406E00A2404E062
:10422000082402E00C2400E00924124B03EBC00335
:104230005A68114B114DC3F89C51114DC3F8A05150
:10424000104DC3F8A451104DC3F8A8510F4DC3F839
:10425000AC5172B6136823F4702313600C4D45F80B
:10426000201043F0807343EA0444146062B630BC0B
:10427000704700BFB8A700000084FF1F253F000063
:10428000853F00002D40000019410000BD410000A5
:1042900044B8FF1F094B03EBC0035A6872B613689A
:1042A00023F0877323F4803343F08073136000227C
:1042B000034B43F8202062B6704700BFB8A7000048
:1042C00044B8FF1F044B00221A6004490A60044AE4
:1042D000106010221A60704714D0034004D00340CD
:1042E00000D0034021281ED80F4B53F8303093F8EC
:1042F000802212F0FF0F08D019B1012283F880202C
:104300007047012283F800217047074B03EBC00080
:10431000436821B11A6842F003021A6070471A68B4
:1043200022F002021A607047B8A70000212806D8C0
:10433000044B53F8303093F80002C0B270470020AD
:10434000704700BFB8A7000021284AD8254B03EBCF
:10435000C0035B68012911D004291DD0214A52F8FD
:104360003020002082F8800200292FD0022931D08D
:1043700003291FD040F203121A607047194A52F8FD
:104380003020012182F880124FF4A2721A601A685C
:1043900022F020021A607047124A52F830200121A0
:1043A00082F880124FF4A2721A601A6842F020025A
:1043B0001A6070474FF480721A601A6842F0020265
:1043C0001A601A6822F001021A6070474FF4807276
:1043D0001A6070474FF480721A601A6842F0030244
:1043E0001A607047B8A7000072B60D4B1B680D4AE3
:1043F00012680D49096862B611F0806F02D0322B45
:1044000088BF0132C3F58C3303F23F130749A1FB88
:1044100003031B094FF47A7000FB0230704700BFA2
:1044200018E000E0CCB8FF1F04ED00E0398EE3385F
:1044300038B50546FFF7D8FF044625B938BD013D1C
:104440000AD004F57A74FFF7CFFF001BB0F57A7F2E
:10445000F5D201F031F9F6E738BD00BF10B5264BB3
:104460004FF400021A604FF080721A604FF0007231
:104470001A604FF080621A604FF000621A600020EC
:104480001E4B186048F6FF710433196028231C4A3C
:104490001360083213600832136008321360083268
:1044A0001360083213600832136008321360092267
:1044B000144C226004F580540434206004342160DC
:1044C0000434236008342360143C226004F5FE2485
:1044D000043420600C4801600C490B6008310B600B
:1044E0000B4B1A6001F00AF94FF4C870FFF7A0FFF8
:1044F00000F074FC10BD00BF08E100E00480034040
:104500000C8003400080034008800B400C800B406F
:1045100000800B4030B40E4B1B7843F002020D4C70
:1045200004EBC20460600C48007800280CBF8824AB
:10453000C82444EA0141074D45F8321080F00100DB
:10454000054A107083F00103014A137030BC7047B4
:1045500038B9FF1F0080FF1FB1B9FF1F10B4431E01
:10456000032B11D872B60A4A52F8230050B14268A0
:10457000074941F82320074A32F813400188611A9D
:1045800022F8131062B600E000205DF8044B70477B
:1045900028B9FF1FE4BBFF1F013803280DD872B6EE
:1045A000074B53F820302BB1002001305B68002B03
:1045B000FBD100E0002062B670470020704700BFCA
:1045C0007CB9FF1F38B572B601231B491B4C5A1822
:1045D00012F8012C12F0080F24D09A0054F832502F
:1045E0006DB9164B03EBC20108304860144943F81B
:1045F0003210144B1A78013A1A7062B638BD42F084
:10460000010254F832506DB90C4B03EBC201083073
:1046100048600D4943F832100A4B1A78013A1A7073
:1046200062B638BD0133052BD1D162B60022054BED
:104630001A7000F037FC38BD00A900000080FF1F91
:1046400088004000A6B9FF1FC800400010B4431EF8
:10465000032B37D8400140F010001C4A104472B6BA
:104660001B4AD25C032A09D8DFE802F019021B05B5
:104670000830022216E00830042213E0154A52F8EE
:1046800023201AB9134A42F8231003E0124A52F8C1
:1046900023205160104A42F8231062B612E0032230
:1046A00000E005220A4CE25401F10803436000F0E7
:1046B0000803002B0CBF8823C8230A8843EA02435F
:1046C000036062B65DF8044B704700BF0080FF1FB7
:1046D000E4B8FF1F7CB9FF1F8CB9FF1F2DE9F84F0D
:1046E000A34CDFF8E092DFF8E0A2DFF8E0B2257833
:1046F000EDB215F0040F1DD09E4B1B7813F0FF0F89
:1047000016D09D4B1B7803F0FF022BB1531EDBB27A
:10471000994A137003B900BE984B1B7803F0FF024F
:1047200033B1531EDBB2954A13700BB900F016FD7E
:104730000423237015F0080F00F0E48299F800308C
:10474000DBB21D0940F021828D4D9E0805EBC603AA
:104750005A6855F83630C3F38303013B0C2B00F243
:104760001082DFE813F0CB01CB010E020E020E0225
:104770000E020E020E02E8010E020E020E020D00E3
:10478000804913680B6052684A607F4A45F83620BA
:1047900000227E490A607A490A618A6101217C4AC5
:1047A00011709BB240F28162934218D8B3F5D06F7A
:1047B0002ED2B3F5817F00F01E8106D8802B00F049
:1047C000C980822B00F0CC8066E140F20232934235
:1047D00000F02681B3F5A06F00F062815CE142F247
:1047E0002102934200F0868107D8B3F5086F00F0EC
:1047F000AB80B3F5106F11D04EE142F2212293420B
:1048000000F0418142F22132934200F0498143E1BC
:10481000604B5D68002D40F0188130E1594B9A786B
:10482000544B1A70564D05F180062B6A13F0800F19
:1048300003D0686A083800F035FB0835B542F4D17A
:10484000DFF88C8100263746534AB05828B14568B6
:1048500000F028FB0DB12846F9E700234E497350BC
:104860004E4AB3504E4BF05828B1456800F01AFB41
:104870000DB12846F9E7002349497350494AB3501E
:1048800028F8023F484BFB5C023B032B0AD8DFE8C9
:1048900003F0020602060022434BDA5502E0012231
:1048A000414BDA5501370436102ECDD100223F4B53
:1048B0001A7001253E4EDFF81C81314F05EB0803CD
:1048C00013F8013C06F8043B13F0080F2DD000F05C
:1048D000C9FA48B1A90007EB451200F1080353607B
:1048E000344A47F8312007E0AB00002247F8332074
:1048F0002E4B1A7801321A7000F0B4FA58B1AB009E
:1049000043F0010307EBC30100F108024A601E4AAD
:1049100047F8332009E0AB0043F00103002247F8D9
:104920003320224B1A7801321A70AA0042F0020199
:10493000002347F8313042F0030247F832300135A6
:104940001D4B9E42BAD11EE20A4B1B781B4D2B70A9
:104950000127AAE0194D00232B706B700227A4E0F9
:10496000084B9B88042B37D90F22154B1A70C1E0D6
:1049700080200740B0B9FF1F39B9FF1FB2B9FF1F30
:104980000080FF1F9CB9FF1FC8004000D0B8FF1F68
:10499000B1B9FF1F04A9000028B9FF1FD4B8FF1F39
:1049A0007CB9FF1F8CB9FF1FE4B8FF1FA6B9FF1F1A
:1049B000C420074088004000D4200740A8B9FF1F4A
:1049C000C0200740902007409420074098200740CF
:1049D000E2BBFF1F00A90000A04A00211170517026
:1049E0009F4A12F8233013F0020F5CD09B4D012335
:1049F0002B70022759E09B4B9B8803F07F03042B0D
:104A000002DC984A52881AB10F22954B1A7071E055
:104A1000934A12F8231021F0020102F82310B2E1A8
:104A2000904B9B8803F07F03042B02DC8D4A528855
:104A30001AB10F228A4B1A705CE0894A12F82310CF
:104A400041F0020102F823109DE1864B5E889F88A9
:104A5000854BA3F10C02114633F80C0CB04209D17E
:104A600033F80A0CB84205D1360A032E0CBF2F7852
:104A700017891AE00D690C330C32002DEBD10F228F
:104A8000774B1A7036E0794B1A68794B1A60754B80
:104A90009A78784B1A7076E10F22714B1A7029E0E0
:104AA00000273D4601E002276C4D6E4BDB889F429C
:104AB00028BF1F46402F34BF3E4640262846314679
:104AC000FFF728FD3544BF1B03D13F2E00F2608164
:104AD00010E0402F34BF3E46402628463146FFF7BF
:104AE00019FD3544BF1B01D13F2E03D9624B1D6018
:104AF000624B1F8001238AF8003042E0594B19882D
:104B000042F22103994212D15D4BD81D12F8011BCC
:104B100003F8011F8342F9D15A4B1B68862B02D13F
:104B20000F22594B1A7000200146FFF7F3FC574B38
:104B300045F8363025E0504B1E68BEB14F4FB7F8F0
:104B40000080B8F1400F34BF454640253046294625
:104B5000FFF7E0FCC5EB08039BB23B800BB9402D8F
:104B600001D1354400E00025434B1D603D4B1B88BF
:104B7000B3F5A06F05D13B4B00225A709B788BF8A0
:104B8000003001238AF80030B9E0414E9F0806EB5F
:104B9000C708D8F80420A2F10800013DEDB213F0D7
:104BA000080F47D000F07EF93A4B53F825304BB34D
:104BB0005A68384941F8252003F10802C8F8042052
:104BC000354A525D032A12D8DFE802F002060A0EC7
:104BD0000321314A51550AE002212F4A515506E07E
:104BE00005212D4A515502E004212B4A515518F058
:104BF000080F0CBF8822C8221B8842EA034346F8EC
:104C000037307CE0244B5B5D032B0BD8DFE803F0EF
:104C1000777702060022204B5A5570E001221E4B86
:104C20005A556CE018F0080F0CBF022203221A4BF1
:104C30005A5564E056F837301B0C22F8083C002B1C
:104C400055D0002322F8063C42F8043C134B53F89D
:104C500025302BBB114B43F8250025E0A8B9FF1FD9
:104C6000C02007409CB9FF1F10A90000CCB8FF1F4F
:104C7000F4BBFF1FC0B9FF1FD0B8FF1FA4B9FF1FAF
:104C8000EBBBFF1FECBBFF1F39B9FF1FC800400083
:104C90000080FF1F7CB9FF1FE4B8FF1F28B9FF1F6A
:104CA0003F4B53F8253058603D4B43F825003D4BB2
:104CB00033F8151032F8082C0A4423F8152000F0B8
:104CC000D1F860B100F10803C8F8043018F0080FFB
:104CD000354B364A08BF134646F837300FE00023FD
:104CE00046F83730324B1A7801321A7007E018F064
:104CF000080F2D4B2D4A08BF134646F837300823BE
:104D00002370F4E415F0010F22D02A4902230B701E
:104D10000022294B1A70294B24481860284C5C60EB
:104D200098602848D8601A619A610D20264B187047
:104D3000FF23264803700838037018300270244A95
:104D400013709F22234B1A7001230B70BDE8F88F5C
:104D500015F0800F05D00D221B4B1A708022403BAE
:104D60001A7015F0020F06D0184B1A78D2B21A70CA
:104D70000222083B1A7015F0100F0ED01022164BAD
:104D80001A70BDE8F88F00200146FFF7C3FBB1E6BB
:104D900028460021FFF7BEFBACE6BDE8F88F00BF58
:104DA000D4B8FF1FE4BBFF1FC800400088004000CC
:104DB000A6B9FF1F9420074038B9FF1F0080FF1FCE
:104DC000E8B8FF1F3CB9FF1FC020074088200740FC
:104DD0008C200740842007408020074008B501F060
:104DE000B7FF00231B491A465A50C81842600833BF
:104DF000882BF9D1184B1A6842F480221A60154B9F
:104E0000C3F30721154A1170C3F30741143211701F
:104E10001B0E04321370FF23343A137008321370E0
:104E2000783A137001238432137000216C321170B0
:104E30007C3A137070220A4B1A704FF40072A3F27E
:104E400041331A60102203F1C04303F5C8231A70DE
:104E500008BD00BF0080FF1F348004409C20074035
:104E600049E400E072B60D4B1A68B2FA82F30B2BDC
:104E700002D962B6002070474FF00041D94022EAC3
:104E8000010206490A6062B6054903EBC303DB0071
:104E9000C8180022CA504260704700BFC899FF1F5F
:104EA0000086FF1F08B50F4BC31A0F4AA2FB03135E
:104EB0001B090B2B14D80D4A12783AB10C4A127800
:104EC00012F0FF0F02D0FFF77DFB08BD72B6094A52
:104ED0004FF0004121FA03F311681943116062B6E3
:104EE00008BD00BF0086FF1F398EE338A6B9FF1F3B
:104EF000B0B9FF1FC899FF1F10B5134B1B6853B9FA
:104F0000124B1B7813F0FF0F18D00320FFF726FB7E
:104F10000D4B1860A8B10C4B186843885A1C034409
:104F20001C7A03889A4206D3FFF7BCFF0022064B87
:104F30001A60204610BD4280204610BD4FF0FF3061
:104F400010BD4FF0FF3010BDBCB9FF1FB0B9FF1F3F
:104F500008B50D4B1B6883B90C4B1B7813F0FF0F82
:104F600008D00320FFF7FAFA074B186028B94FF072
:104F7000FF3008BD4FF0FF3008BD034B1B685A8857
:104F80001344187A08BD00BFBCB9FF1FB0B9FF1F9A
:104F9000044B9888044B1B681BB11A885B88D31A92
:104FA00018447047E4BBFF1FBCB9FF1F10B50B4B83
:104FB0001B7813F0FF0F0FD0094B186820B1FFF7D3
:104FC00071FF0022064B1A6003242046FFF7C6FA41
:104FD00010B1FFF767FFF8E710BD00BFB0B9FF1FC2
:104FE000BCB9FF1F2DE9F04704460122374B1A7068
:104FF0000E46002964D0DFF8E080DFF8E0909A46A2
:10500000334FD8F8003083BB99F8003013F0FF0F0E
:1050100006D100222D4B1A704FF0FF30BDE8F0870B
:1050200048F601450420FFF7B7FA07280AD80123FC
:105030008AF80030FFF716FFC8F80000A8B900236F
:105040008AF80030013D01D03B7833B10122204B7A
:105050001A704FF0FF30BDE8F08700F02DFB99F893
:10506000003013F0FF0FDDD1D3E700233B70D8F8F9
:1050700000104A88C2F14005AE4238BF354602F101
:1050800008030B442A444A80761B3DB1254414F89A
:10509000012B03F8012BAC42F9D100E025464B88E7
:1050A0003F2B07D940230B800420FFF7CFFA0023C2
:1050B000C8F800300522074B1A700EB12C46A0E745
:1050C0000020024B1870BDE8F08700BFB3B9FF1F86
:1050D000B8B9FF1FB2B9FF1FB4B9FF1FB0B9FF1FA6
:1050E00000B583B002AB03F8010D18460121FFF7AC
:1050F00079FF03B05DF804FB10B5144B1B7813F077
:10510000FF0F21D00122124B1A70124B196851B1B6
:105110000024114B1C704B880B800420FFF796FA7B
:105120000C4B1C600DE0FFF79DFE014630B10022E4
:10513000094B1A700420FFF789FA02E00122064B9E
:105140001A700022024B1A7010BD00BFB0B9FF1FC9
:10515000B3B9FF1FB4B9FF1FB2B9FF1F08B50E4B9B
:105160001B7813F0FF0F16D10C4B196841B14B8817
:105170000B800420FFF76AFA0022084B1A6008BD72
:10518000FFF770FE014618B10420FFF75FFA08BD73
:105190000122034B1A7008BDB3B9FF1FB4B9FF1F3A
:1051A000B2B9FF1F30B472B699B902688AB10379F7
:1051B0000F2B0ED827490988194111F0010F08D08B
:1051C00003F1007303F59063B2EB431F01D162B6A4
:1051D0003EE0204B1D882946002341FA03F212F0DD
:1051E000010F2DD1012202FA03F42543194A15803B
:1051F00062B6DAB2027118490C6844F002040C601D
:1052000004390C6844F002040C60822413490C60D9
:105210001A310A7004310A7006390A7007310A70AF
:1052200003F1007303F590635B01036000221A60D1
:105230005A609A60DA601A615A619A61DA6107E02D
:105240000133102BC9D162B6002303601023037110
:1052500030BC7047C2B9FF1F40800440008000404E
:1052600003790F2B10D8094A137072B6084B0279D4
:10527000012101FA02F2198821EA02021A8062B6BB
:105280001023037100230360704700BF1A800040A1
:10529000C2B9FF1F08B50122024B1A60024B1B68FE
:1052A000984708BD0C710340CCB9FF1F08B5012217
:1052B000024B1A60024B5B68984708BD1C710340A3
:1052C000CCB9FF1F08B50122024B1A60024B9B6844
:1052D000984708BD2C710340CCB9FF1F08B50122C7
:1052E000024B1A60024BDB68984708BD3C710340D3
:1052F000CCB9FF1F054B1A6842F400021A60002265
:10530000034B1A600122034B1A7070473C80044023
:1053100000700340C8B9FF1F0122064B1A6003F555
:1053200088333C331A6822F400021A600022024BD0
:105330001A70704700700340C8B9FF1F10B442785C
:105340001401164B23444360154B234483600369C7
:10535000144C44F82230836800221A6043681960B4
:10536000836803221A6043784433DBB2037303F18A
:10537000604303F56443427B1A70027B53119B0028
:1053800003F1604303F5614302F01F02012101FABA
:1053900002F21A605DF8044B704700BF00710340D1
:1053A00008710340CCB9FF1F70B504460D46134B7E
:1053B0001B780BB9FFF79EFF114B1B788BB1104B7D
:1053C0005B7843B10E4B9B7843B10D4BDB789BB9B7
:1053D00003231E4607E001231E4604E002231E4667
:1053E00001E000263346637020462946FFF7A6FFFA
:1053F0000120034B985570BD002070BDC8B9FF1F38
:10540000C4B9FF1F10B5836800221A60037B5C11CA
:1054100003F01F03012101FA03F30A4941F8243084
:10542000094B41785A541B7853B9074B5B783BB909
:10543000054B9B7823B9044BDB780BB9FFF76CFF66
:1054400010BD00BF80E100E0C4B9FF1F70B5044685
:105450000E46154603781BB1FFF7D4FF00232370D7
:10546000266120462946FFF79FFF10B101232370D4
:1054700001E000232370207870BD00BF10B5044602
:1054800003780BB1FFF7BEFF0023237010BD00BFF0
:105490002DE9F0438BB0074688468C68C4B10025DF
:1054A0002E464FF02109404601A94A462B4600F0FE
:1054B000ABF8202C34BF224620221544A41A3B68A6
:1054C0005B68384601A998470644002CEBD100E000
:1054D000002630460BB0BDE8F08300BF00B583B0B6
:1054E000054B1B88ADF8043003685B6801A90222F4
:1054F000984703B05DF804FBC8A8000010B5044647
:10550000006802F0C5FD204610BD00BF38B5044656
:105510000D460068013103F00DF918B12060656097
:10552000012038BD002038BD10B5044643688B42C9
:105530000AD2FFF7EBFF034648B1A36833B92368EB
:1055400000221A70012302E0012300E00123184623
:1055500010BD00BF70B504460E4615462AB9036853
:1055600003B11A700023A36012E01146FFF7DCFFBD
:1055700048B9206818B102F08BFD00232360002396
:105580006360A36004E0A5602068314603F0D2FAAE
:10559000204670BD38B504460D4641B1084603F0BB
:1055A00027FB024620462946FFF7D4FF01E00023EF
:1055B0008360204638BD00BF10B586B00446002386
:1055C0000360436083600373084601A900F042F959
:1055D000204601A9FFF7DEFF204606B010BD00BF40
:1055E00010B58AB0044600230360436083600373F0
:1055F0000846911C6B4600F03DF901462046FFF736
:10560000C9FF20460AB010BD38B50C469AB191B119
:105610008168994202D80023237038BD551EC91AEB
:105620008D4228BF0D460168204619442A4603F0E2
:105630000FFB0023635538BD08B5FBF769F8FAF78F
:105640009FFF00F039F8FAE708B502F019FD08BD30
:1056500008B502F01DFD08BD08B5FFF799FC08BDAF
:1056600008B5FFF749FC08BD08B5FFF771FC08BD98
:1056700008B5FFF741FD08BD08B5FFF797FC08BD69
:1056800008B50846FFF72CFD08BD00BF08B5084661
:105690001146FFF7A7FC08BD704700BF044B00226E
:1056A0001A714FF47A7199601A73024A1A6070473E
:1056B000DCB9FF1FD8A8000008B50F4B1B78CBB989
:1056C00001220D4B1A70FFF763FC08B1FFF7E4FFEE
:1056D00000F0F6FB08B101F011FC00F07DFF08B10D
:1056E00001F0AEFC01F04AFA08B101F04BFD0022D6
:1056F000014B1A7008BD00BFECB9FF1F60223A4B86
:105700001A70E12201331A70384B1B78082B10D124
:10571000012203F1804303F56C331A6013233449EB
:105720000B6001F5FF2101F2FC710A60314A136040
:105730001FE00A2B0DD119222F4B1A6013232C497D
:105740000B6001F5FF2101F2FC710A60294A136028
:105750000FE00C2B0CBF15223D22274B1A601223A1
:1057600023490B6001F5FF2101F2FC710A60214A17
:105770001360224B1B7833B10123214A136002F5D9
:105780000022136005E000231D4A136002F5002289
:1057900013601C4B1B78012B06D880231A4A136018
:1057A00002F5002213601AE0042B06D88423164A5F
:1057B000136002F50022136011E0082B06D8852340
:1057C000114A136002F50022136008E0102B94BF09
:1057D000862387230C4A136002F5002213600122FE
:1057E0000A4B1A70704700BF00400740CC99FF1F5A
:1057F0000CB003400CB00B4008B00340EEB9FF1FE3
:1058000020B00340CD99FF1F24B00340EDB9FF1F26
:1058100030B40023B0FBF2F402FB14041D46092C43
:1058200094BF30343734E4B2CC54B0FBF2F008B15A
:105830000133EFE70D4400226A70934207DD885C74
:10584000CC5C8C54C8540132013B9A42F7DB0846C9
:1058500030BC704710B50C46002802DBFFF7D8FFBC
:1058600010BD2D2301F8013B4042FFF7D1FF204638
:1058700010BD00BF2DE9F04782B0884692461F4612
:10588000114601AA6B4602F0C3FB8146BAF1000F34
:105890000DD1019B5BB990F800904A4B4A4AB9F18F
:1058A000340F8CBF914699464FF0010C0BE04846EF
:1058B00003F09EF98446019B9842C8BF00F1010C99
:1058C0000BB90CF1010C009A0AB10CF1010C07EBB9
:1058D0000C06CCEB0804002C08DD26443C443D4675
:1058E000202305F8013BA542FBD100E03C4612B164
:1058F0002D2323700134019BB3B9BAF1000F08D0F6
:105900002346302203F8022B2E2262701C4600E050
:105910000446B44233D2621C99F800302370B2427C
:1059200030D048462E2121E0002BF2DABAF1000FE8
:10593000EFD02046302300F8023B2E23637001365F
:10594000019C002CE4DA0346011B302203F8012BF2
:105950008B42FBD1041B00230193DAE7551C10F89E
:10596000013F1370B5420CD014462A46019D013DFB
:1059700001950DB9A21C61709642EFD802E0224653
:1059800000E02A46B8F1000F15DAC4446FEA0C00B3
:10599000CCF1000CBCF1000F0DDD1346202403F800
:1059A000014BC3F10101014411440029F7DC20EA55
:1059B000E0700130024400231370384602B0BDE8A5
:1059C000F08700BFFCA80000F8A80000254B1A686B
:1059D00042F480621A600023234A1370234A137032
:1059E000234A1370234A1370234A1370234B1B78E6
:1059F00013B1152B05D008E040F21332204B1A608A
:105A000003E040F213321F4B1A601F4B1B78012B2F
:105A100002D0052B05D008E04FF451721B4B1A60E1
:105A200003E04FF451721A4B1A60C0F34432194B21
:105A30001A70C0F347125A7000F01F0098720422C7
:105A40009A700221D9745A7588221A743C22DA702D
:105A50004022114B1A704FF40052A3F229331A60FE
:105A6000704700BF348004407CBAFF1FF5B9FF1FA8
:105A700084BAFF1F7DBAFF1FF4B9FF1F38BAFF1F9A
:105A800040A0044018C00440CE99FF1F44A0044029
:105A90001CC0044000A006402DE400E0164B9B789B
:105AA00003F0EC0300F00302134310F0040F18BFDF
:105AB00043F01003104A937000F00F03042B04D13D
:105AC0001346927942F040029A710B4B5A7902F0D8
:105AD000EF0210F0100F18BF42F01002064B5A717F
